:020000040800F2
:10000000B0070020E50A0008390400083B04000896
:100010003F040008430400084704000800000000F3
:100020000000000000000000000000004B04000879
:100030004D040008000000004F04000851040008AF
:10004000FF0A0008FF0A0008FF0A0008FF0A00086C
:10005000FF0A0008FF0A0008FF0A0008FF0A00085C
:10006000FF0A0008FF0A0008FF0A0008FF0A00084C
:10007000FF0A0008FF0A0008FF0A0008FF0A00083C
:10008000FF0A0008FF0A0008FF0A0008FF0A00082C
:10009000FF0A0008FF0A0008FF0A0008FF0A00081C
:1000A000FF0A0008FF0A0008FF0A0008FF0A00080C
:1000B000FF0A0008FF0A0008FF0A0008FF0A0008FC
:1000C000FF0A0008FF0A0008FF0A0008FF0A0008EC
:1000D000FF0A0008590A0008FF0A0008FF0A000882
:1000E000FF0A0008FF0A0008FF0A000800F002F8F3
:1000F00000F03AF80AA090E8000C82448344AAF188
:100100000107DA4501D100F02FF8AFF2090EBAE885
:100110000F0013F0010F18BFFB1A43F0010318473B
:10012000D01A0000F01A0000103A24BF78C878C135
:10013000FAD8520724BF30C830C144BF04680C60ED
:10014000704700000023002400250026103A28BF35
:1001500078C1FBD8520728BF30C148BF0B60704739
:100160001FB51FBD10B510BD01F0FAFC1146FFF719
:10017000F7FF00F02DF901F018FD03B4FFF7F2FFCF
:1001800003BC00F001FC000010B504460D2C7CD22D
:10019000DFE804F0071C31465B70879CB1C6DBF0DA
:1001A000FE000221A24800F0CCFD0421A04800F08E
:1001B000C8FD08219E4800F0C4FD10219C4800F0B5
:1001C000C0FD20219A4800F0BAFD00BF02219848E6
:1001D00000F0B5FD0421964800F0B3FD08219448D5
:1001E00000F0AFFD1021924800F0ABFD20219048B7
:1001F00000F0A5FD00BF02218D4800F0A2FD042102
:100200008B4800F09CFD0821894800F09AFD1021E0
:10021000874800F096FD2021854800F090FD00BF42
:100220000221834800F08BFD0421814800F087FD06
:1002300008217F4800F085FD10217D4800F081FDF8
:1002400020217B4800F07BFD00BF0221784800F0B0
:1002500078FD0421764800F074FD0821744800F010
:100260006EFD1021724800F06CFD2021704800F0F6
:1002700066FD00BF02216E4800F061FD04216C485C
:1002800000F05FFD08216A4800E09FE000F057FDA4
:100290001021674800F055FD2021654800F04FFD12
:1002A00000BF0221624800F04CFD0421604800F0CC
:1002B00046FD08215E4800F042FD10215C4800F038
:1002C00040FD20215A4800F03AFD00BF0221584865
:1002D00000F035FD0421564800F031FD0821544856
:1002E00000F02DFD1021524800F02BFD2021504838
:1002F00000F025FD00BF02214D4800F022FD042141
:100300004B4800F01EFD0821494800F01AFD10215D
:10031000474800F014FD2021454800F012FD00BFC1
:100320000221434800F00BFD0421414800F009FD83
:1003300008213F4800F005FD10213D4800F0FFFC7A
:1003400020213B4800F0FDFC00BF0221384800F0AE
:10035000F8FC0421364800F0F2FC0821344800F093
:10036000F0FC1021324800F0EAFC2021304800F077
:10037000E8FC00BF02212E4800F0E1FC04212C48DB
:1003800000F0DDFC08212A4800F0DBFC102100E031
:1003900007E0274800F0D3FC2021254800F0D1FCDD
:1003A00000BF0221224800F0CCFC0421204800F0CC
:1003B000C8FC08211E4800F0C2FC10211C4800F0B7
:1003C000BEFC20211A4800F0BCFC00BF00BF10BDDD
:1003D00000BF00BF002400BF00F06CFA4FF4A06023
:1003E00001F024F94FF4E13000F0EAFA00F06CF982
:1003F00000F0ECF900F08CF918E0002411E0204640
:10040000FFF7C2FE022000F06EFA0221092000F080
:1004100036FA0546284601F0D3FB064941F8240088
:10042000641C0D2CEBDB0D2000F004F9E5E7000067
:100430000008014034000020704700BFFEE700BF05
:10044000FEE700BFFEE700BFFEE77047704770475A
:10045000704700000CB50020019000906C480068C7
:1004600040F480306A49086000BF6948006800F4C1
:10047000003000900198401C0190009818B9019834
:10048000B0F5A06FF1D16248006800F4003010B1FF
:100490000120009001E0002000900098012843D145
:1004A0005C48006840F010005A490860084600683F
:1004B00020F0030008600846006840F00200086071
:1004C00053484068524948600846406848600846BA
:1004D000406840F4806048600846406820F47C1022
:1004E00048600846406840F4E810486008460068E4
:1004F00040F08070086000BF4548006800F0007060
:100500000028F9D04248406820F003004049486084
:100510000846406840F00200486000BF3C48406820
:1005200000F00C000828F9D10CBD10B5FFF792FFC0
:1005300010BD10B53648006840F00100344908602D
:100540000846406834490840314948600846006818
:10055000324908402E4908600846006820F480208F
:1005600008600846406820F4FE0048604FF41F0011
:100570008860FFF7DAFF4FF000602949086010BD7E
:1005800010B5002100200022214B5B6803F00C0114
:1005900021B1042906D0082928D107E0214B224C9B
:1005A000236027E01F4B204C236023E0184B5B683F
:1005B00003F47010164B5B6803F48032022303EBE4
:1005C000904022B9194B4343174C23600DE0104B68
:1005D0005B6803F4003323B1144B4343124C236094
:1005E00003E0104B4343104C236003E00D4B0E4CD3
:1005F000236000BF00BF064B5B68C3F303130C4CC2
:10060000E15C094B1B68CB40074C236010BD000028
:1006100000100240002002400000FFF8FFFFF6FE3D
:1006200008ED00E000127A000000002000093D0003
:100630000400002070B5064600240025442000F088
:10064000B2F985F04405772000F0ADF985F0770523
:10065000B00000F0A8F985EA8600C5B200BF2BE023
:10066000184911F8240000F09EF9164810F82400EB
:100670004540144901EB8401487800F094F9114891
:1006800000EB8400407845400E4901EB84018878F6
:1006900000F089F90B4800EB840080784540094957
:1006A00001EB8401C87800F07EF9064800EB840075
:1006B000C0784540601CC4B2B442D1DB284600F08B
:1006C00072F970BD3400002008B50121242000F02B
:1006D00045FD4FF48070ADF8000010208DF8030048
:1006E00003208DF802006946364800F07BFA4FF48B
:1006F0008071344800F023FB0420ADF80000694607
:10070000314800F06FFA04212F4800F018FB08BDB3
:1007100008B50121042000F021FD0220ADF8000001
:1007200010208DF8030003208DF80200694625484B
:1007300000F058FA0221234800F001FB0420ADF834
:10074000000010208DF8030003208DF80200694698
:100750001C4800F047FA04211A4800F0F0FA08207B
:10076000ADF8000010208DF8030003208DF8020082
:100770006946144800F036FA0821124800F0DFFA02
:100780001020ADF800008DF8030003208DF8020062
:1007900069460C4800F026FA10210A4800F0CFFA0A
:1007A0002020ADF8000010208DF8030003208DF804
:1007B00002006946034800F015FA2021014800F0C4
:1007C000BEFA08BD000801400014014000B587B022
:1007D00001214FF4027000F0C1FC4FF4004000F022
:1007E00021FC0220ADF8040000208DF8070001A9CB
:1007F0002E4800F0F7F92E4800F086FF0020029006
:100800008DF80C008DF80D004FF46020049000204E
:10081000059001208DF8180002A9254800F09BFFE3
:100820000121234800F0C3FF214800F0E2FF00BF90
:100830001F4800F0E3FF0028FAD11D4800F0E8FF50
:1008400000BF1B4800F0E9FF0028FAD107B000BD47
:1008500010B50446022301222146154801F013F881
:100860000121134800F0E3FF00BF0221104801F00E
:100870004FF90028F9D00E4801F06CF810BD2DE9B1
:10088000F04107460C460025002608E03846FFF7F1
:10089000DFFF0544052000F04AF8701CC6B2A642EE
:1008A000F4DBB5FBF4F080B2BDE8F081000C014050
:1008B0000024014010B56FF0040000F006FF2E4840
:1008C00000682E49B0FBF1F02D4908700846007809
:1008D00000EB4001C1EBC0104FF6FF7101EAC00010
:1008E0002849088010BD0146254A12784A434FF036
:1008F000E0235A6100229A611A46126942F001020D
:100900001A6100BF4FF0E022106900F001021AB135
:1009100000F48032002AF5D04FF0E022126922F074
:1009200001024FF0E0231A6100229A6170470146EC
:10093000144A12884A434FF0E0235A6100229A6118
:100940001A46126942F001021A6100BF4FF0E0221C
:10095000106900F001021AB100F48032002AF5D0CB
:100960004FF0E022126922F001024FF0E0231A61F9
:1009700000229A61704700000000002000127A00F7
:100980001400002016000020014600BF704700BF81
:10099000504A128802F04002002AF9D0C2B24D4BF0
:1009A0001B1D1A80704700BF4A49098801F0800169
:1009B0000029F9D0C0F30801464A121D1180704782
:1009C00010B586B00446012144F2040000F0C6FBD5
:1009D0004FF40070ADF8140003208DF816001820B5
:1009E0008DF8170005A93C4800F0FCF84FF4806032
:1009F000ADF8140004208DF8170005A9364800F062
:100A0000F1F825208DF8000003208DF801008DF805
:100A1000020001208DF80300684600F00CFE0194EE
:100A20000020ADF80800ADF80A00ADF80C00ADF8F4
:100A300010000C20ADF80E0001A9264800F035FC8E
:100A4000012240F22551234800F0C7FC0121214832
:100A500000F0B7FC06B010BD10B540F225511D489E
:100A600000F0A0FD10B31B4800F01CFDC4B21B48F1
:100A7000008800F40040C8B91848008800F480409D
:100A800060B10A2C03D000201449088020E01348EC
:100A9000008840F400401149088019E00D2C06D16F
:100AA0000E48008840F480400C49088010E00B4854
:100AB0000088C0F30D000A490C5408480088401C07
:100AC0000649088008460088C72801DD0020088004
:100AD00010BD000000380140000801401C0000204B
:100AE000840000200948804709480047FEE7FEE7E8
:100AF000FEE7FEE7FEE7FEE7FEE7FEE7FEE7FEE7CE
:100B000004480549054A064B7047000033050008B4
:100B1000ED000008B0010020B0070020B003002065
:100B2000B003002010B50446CC48844208D101210E
:100B3000042000F02DFB0021042000F029FB46E0FA
:100B4000C748844208D10121082000F021FB002180
:100B5000082000F01DFB3AE0C248844208D1012180
:100B6000102000F015FB0021102000F011FB2EE0FA
:100B7000BD48844208D10121202000F009FB00215A
:100B8000202000F005FB22E0B848844208D1012172
:100B9000402000F0FDFA0021402000F0F9FA16E0B4
:100BA000B348844208D10121802000F0F1FA0021ED
:100BB000802000F0EDFA0AE0AE48844207D101211E
:100BC000801500F0E5FA0021A01500F0E1FA10BD53
:100BD00010B50121084600F0DBFA0021012000F0E9
:100BE000D7FA10BD2DE9F04102460025002600206D
:100BF00000230024002791F803C00CF00F0591F8A2
:100C000003C00CF0100CBCF1000F03D091F802C02F
:100C10004CEA050591F800C0BCF1000F31D0146812
:100C200000202BE04FF0010C0CFA00F3B1F800C0EB
:100C30000CEA03069E4220D183004FF00F0C0CFA01
:100C400003F7BC4305FA03FC4CEA040491F803C023
:100C5000BCF1280F06D14FF0010C0CFA00FCC2F8D1
:100C600014C00AE091F803C0BCF1480F05D14FF061
:100C7000010C0CFA00FCC2F810C0401C0828D1D3AB
:100C80001460B1F800C0BCF1FF0F34DD54680020DF
:100C90002EE000F1080C4FF0010808FA0CF3B1F84F
:100CA00000C00CEA03069E4221D183004FF00F0CD6
:100CB0000CFA03F7BC4305FA03FC4CEA040491F870
:100CC00003C0BCF1280F05D100F1080C08FA0CF89C
:100CD000C2F8148091F803C0BCF1480F07D100F1AD
:100CE000080C4FF0010808FA0CF8C2F81080401CFC
:100CF0000828CED35460BDE8F0814FF6FF71018023
:100D0000022181700421C17070470246002093685F
:100D10000B400BB1012000E00020704701468868BD
:100D200080B2704702460020D3680B400BB101200F
:100D300000E0002070470146C86880B2704701613A
:100D40007047416170470AB1016100E0416170473D
:100D5000C16070474FF480320A43826181618261D1
:100D600082698269704702460020434B18684FF63B
:100D70008073184040EA021008433F4B18607047E8
:100D80003E49C8617047F0B50A460023002400219F
:100D9000002500F00046B6F1004F02D1364EF16951
:100DA00001E0354E7168C0F3034583B200F440168C
:100DB000B6F5401F08D121F070612F4E766826F0FD
:100DC00070662D4F7E6012E000F48016B6F5801F2D
:100DD00006D1032606FA05F4A14341F0706106E04E
:100DE000460D360103FA06F6B14341F0706122B1B7
:100DF000460D360103FA06F6314300F00046B6F11F
:100E0000004F02D11C4EF16101E01B4E7160F0BD3C
:100E100030B500228B071C0F0F2303FA04F2164B88
:100E200008338C1053F824309343134C08348D103E
:100E300044F8253023468C1053F824308C07240FB7
:100E400000FA04F423430C4C08348D1044F8253088
:100E500030BD0A49DC3108607047000000080140DD
:100E6000000C014000100140001401400018014036
:100E7000001C014000200140000001400000204211
:100E8000DF48006840F00100DD490860084640681E
:100E9000DC490840DA49486008460068DA490840F9
:100EA000D74908600846006820F48020086008469A
:100EB000406820F4FE0048604FF41F0088607047CF
:100EC000CF49096821F48031CD4A11601146096883
:100ED00021F480211160B0F5803F03D0B0F5802F60
:100EE0000ED106E0C649096841F48031C44A116058
:100EF00007E0C349096841F4A021C14A116000E03C
:100F000000BF00BF704710B501460022002300203B
:100F10004A11012A02D1BA4C236806E0022A02D102
:100F2000B74C236A01E0B64C636A01F01F0201244A
:100F300094401C400CB1012000E0002010BD38B5E9
:100F4000002000900024002500BF3120FFF7DBFFC8
:100F500005460098401C00900098B0F5A06F01D0A5
:100F6000002DF2D03120FFF7CEFF08B1012400E0C0
:100F70000024204638BD01460020A14A106820F018
:100F8000F80040EAC10010607047A049086070474F
:100F9000024600209A4B586820F47C1042EA010374
:100FA0001843974B58607047984908667047014648
:100FB0000020934A506820F00300084350607047B7
:100FC0008F48406800F00C007047014600208C4AB2
:100FD000506820F0F0000843506070470146002040
:100FE000874A506820F4E06008435060704701462B
:100FF0000020834A506820F4605040EAC1005060ED
:10100000704729B17E4A527A02437D4B5A7204E0FE
:101010007B4A527A82437A4B5A7270477B49D83165
:101020000860704701460020754A506820F440402F
:101030000843506070470021714A20321170704A95
:1010400082F82010012802D004280AD104E00121EE
:101050006B4A2032117005E00521694A2032117077
:1010600000E000BF00BF70476949086070476449ED
:10107000096A0143624A1162704765494439086050
:10108000704730B500210022002400235C4D6D68BC
:1010900005F00C0121B1042905D0082923D105E070
:1010A0005C4D056022E05B4D05601FE0544D6D68AE
:1010B00005F47012524D6D6805F48034022505EB7D
:1010C00092421CB9544D554305600BE04C4D6D6880
:1010D00005F400351DB1504D5543056002E04D4DFE
:1010E0005543056002E04B4D056000BF00BF444D15
:1010F0006D6805F0F0010909484D6B5C0568DD403D
:1011000045603F4D6D6805F4E061090A434D6B5C35
:101110004568DD4085603A4D6D6805F46051C90A47
:101120003E4D6B5C4568DD40C560354D6D6805F42E
:101130004041890B3A4D6B5CC568B5FBF3F5056121
:1011400030BD29B12E4A526902432D4B5A6104E049
:101150002B4A526982432A4B5A61704729B1284A67
:1011600092690243264B9A6104E0254A92698243C0
:10117000234B9A61704729B1214AD2690243204B1F
:10118000DA6104E01E4AD26982431D4BDA6170477E
:1011900029B11B4AD2680243194BDA6004E0184AAD
:1011A000D2688243164BDA60704729B1144A12693B
:1011B0000243134B1A6104E0114A12698243104B37
:1011C0001A61704712494039086070470F49C86476
:1011D00070470B49C87170470948406A40F08070F9
:1011E00007494862704701460020054A92680A4054
:1011F0000AB1012000E00020704701498872704761
:10120000001002400000FFF8FFFFF6FE000042421F
:101210008004424200127A0000093D001E000020B6
:101220002E00002010B50446FB48844209D101215C
:101230008803FFF7ADFF00214FF48040FFF7A8FFC0
:1012400032E0F648844209D101214804FFF7ADFF9E
:1012500000214FF40030FFF7A8FF25E0F04884425A
:1012600009D101218804FFF7A0FF00214FF480205D
:10127000FFF79BFF18E0EB48844209D10121C80425
:10128000FFF793FF00214FF40020FFF78EFF0BE0E4
:10129000E548844208D101210805FFF786FF0021B7
:1012A0004FF48010FFF781FF10BD2DE9F04786B0A5
:1012B00005460E460024A24600BFA1460027B0897D
:1012C00000B100BF2F462C8A4CF6FF700440F08816
:1012D00004432C82AC894EF6F3100440B088318967
:1012E0000843718908430443AC81AC8A4FF6FF4040
:1012F0000440B0890443AC8201A8FFF7C2FEC6488F
:10130000874202D1DDF810A001E0DDF80CA0A88929
:1013100000F4004040B10AEBCA0000EB0A1031684B
:101320004900B0FBF1F807E00AEBCA0000EB0A1035
:1013300031688900B0FBF1F86420B8FBF0F00401DB
:101340002009642101FB1089A88900F4004040B104
:10135000322000EBC900B0FBF1F000F007000443BD
:1013600008E0322000EB09106421B0FBF1F000F03E
:101370000F0004432C8106B0BDE8F0874FF41651EE
:10138000016000218180C18001810C214181002107
:101390008181704710B502460020108A4FF2FF038A
:1013A00018400B884C8823438C882343CC882343E4
:1013B0001843108210BD0021018041808180C180CE
:1013C000704721B1828942F40052828104E082890F
:1013D0004DF6FF731A4082817047F0B50346002432
:1013E00000260025002040F66A17B94200D100BF50
:1013F0001846C1F3421401F01F06012707FA06F54B
:10140000012C01D10C3004E0022C01D1103000E09D
:1014100014301AB107682F43076002E00768AF4332
:101420000760F0BD1AB1838A0B43838202E0838A8E
:101430008B4383827047028A4FF6F0731A40028210
:10144000028A0A430282704782894FF2FF731A4070
:10145000828182890A438281704721B1828942F068
:101460000202828104E082894FF6FD731A40828174
:101470007047028A4FF6DF731A400282028A0A43DB
:101480000282704721B1028A42F48042028204E063
:10149000028A4BF6FF731A4002827047C1F30802BA
:1014A0008280704701468888C0F3080070478189B0
:1014B00041F0010181817047028BD2B20283028B1D
:1014C00042EA012202837047028B02F47F420283C8
:1014D000028B0A430283704721B1828A42F02002C4
:1014E000828204E0828A4FF6DF731A40828270475C
:1014F00021B1828A42F01002828204E0828A4FF691
:10150000EF731A408282704721B1828A42F008024A
:10151000828204E0828A4FF6F7731A408282704713
:1015200021B1828942F40042828103E08289C2F3C0
:101530000E028281704721B1828A42F40062828267
:1015400004E0828A4FF2FF731A4082827047828AD7
:101550004FF6FB731A408282828A0A438282704766
:1015600021B1828A42F00202828204E0828A4FF62E
:10157000FD731A408282704702460020B1F5007F59
:1015800000D100BF13880B400BB1012000E0002008
:10159000704701F40072B2F5007F00D100BFCA436A
:1015A0000280704770B50246002400230025002009
:1015B00040F66A16B14200D100BFC1F3421501F0F6
:1015C0001F03012606FA03F3012D02D19689334049
:1015D00006E0022D02D1168A334001E0968A33409C
:1015E0000C12012606FA04F41688344013B10CB12B
:1015F000012000E0002070BD10B50022002340F65D
:101600006A14A14200D100BF0A1201249440A3B27F
:10161000DC43048010BD000000380140004400405D
:1016200000480040004C0040005000403149014358
:10163000314A1160704770B5002100230F22C47831
:1016400004B32D4C246804F4E064C4F5E064210A7A
:10165000C1F10403CA40447804FA03F184781440C9
:1016600021430901254C0678A155047804F01F0593
:101670000124AC4005786D11AD0005F1E025C5F8F9
:10168000004109E0047804F01F050124AC401C4D22
:101690000678761145F8264070BD1A4A0A40024382
:1016A000154B1B1F1A60704739B1134A121D12687F
:1016B0000243114B1B1D1A6006E00F4A121D1268EF
:1016C00082430D4B1B1D1A607047042808D14FF050
:1016D000E021096941F004014FF0E022116107E0C7
:1016E0004FF0E021096921F004014FF0E02211617F
:1016F000704700000000FA050CED00E000E400E097
:1017000080E100E080FFFF1F10B50446FA488442E4
:1017100008D101214015FFF73BFD00216015FFF7BF
:1017200037FD17E0F548844208D101210015FFF785
:101730002FFD00212015FFF72BFD0BE0F048844220
:1017400008D10121C803FFF723FD00214FF4004019
:10175000FFF71EFD10BD30B5024600200023506883
:10176000E84C20400D790C6844EA05242043506081
:101770009068E54C2040D1E902542C434D7944EA6D
:10178000450420439060D06A20F470000C7C641EF5
:10179000E4B2234340EA0350D06230BD002101602F
:1017A000017141718160C16001210174704721B1F3
:1017B000826842F00102826003E0826822F0010246
:1017C0008260704721B1826842F48072826003E0D7
:1017D000826822F480728260704710B50023CBB219
:1017E0001AB144681C43446002E044689C4344606E
:1017F00010BD816841F008018160704701460020FA
:101800008A6802F008020AB1012000E00020704757
:10181000816841F0040181607047014600208A68B8
:1018200002F004020AB1012000E00020704721B15B
:10183000826842F4A002826003E0826822F4A0027F
:1018400082607047014600208A6802F480020AB173
:10185000012000E00020704710B50A460021002357
:10186000416821F46041531E41EA4331416010BD9B
:1018700021B1426842F40062426003E0426822F40F
:10188000006242607047F0B504460D46002000211A
:10189000092D11DDE068A5F10A0606EB46070726CB
:1018A00006FA07F18843A5F10A0606EB460603FA95
:1018B00006F10843E0600CE0206905EB45070726C8
:1018C00006FA07F1884305EB450603FA06F10843DB
:1018D0002061072A0FDA606B561E06EB86071F266B
:1018E00006FA07F18843561E06EB860605FA06F14E
:1018F0000843606322E00D2A0FDA206BD61F06EB47
:1019000086071F2606FA07F18843D61F06EB8606D0
:1019100005FA06F10843206310E0E06AA2F10D0623
:1019200006EB86071F2606FA07F18843A2F10D068B
:1019300006EB860605FA06F10843E062F0BD21B128
:10194000826842F48012826003E0826822F480128E
:10195000826070470146C86C80B2704766484C3060
:101960000068704721B1426842F48062426003E03F
:10197000426822F480624260704721B1426842F4BA
:101980008052426003E0426822F480524260704715
:101990000A460021816821F4E041114381607047CB
:1019A00021B1826842F40042826003E0826822F43E
:1019B00000428260704721B1826842F40212826064
:1019C00003E0826822F40212826070470146002020
:1019D0008A6802F400120AB1012000E0002070477A
:1019E000F0B504461546002000220026092911DD25
:1019F000E068A1F10A0707EB470C072707FA0CF28A
:101A00009043A1F10A0707EB470703FA07F21043D7
:101A1000E0600CE0206901EB410C072707FA0CF2AB
:101A2000904301EB410703FA07F210432061A06BDA
:101A3000C0F30156EF1C06F1010CA7EB0C0707EBF6
:101A4000870C1F2707FA0CF29043EF1C06F1010CDC
:101A5000A7EB0C0707EB870701FA07F21043A06317
:101A6000F0BD10B50A4600210023816B21F440111E
:101A7000531E41EA0351816310BD08B50023009352
:101A80000090009B0B440093009B1A6008BD08B5B2
:101A9000024600200090009201F12800009B1844AB
:101AA00000900098006880B208BD0A460021416895
:101AB000164B194011434160704741628262704782
:101AC0000A460021416821F01F011143416070471F
:101AD00040B109490831096841F40001064A083259
:101AE000116007E004490831096821F40001024A45
:101AF00008321160704700000024014000280140B6
:101B0000003C0140FFFEF0FFFDF7F1FFFFFD3FFF4E
:101B10000246002013680B400BB1012000E00020BA
:101B20007047CA430260704770B502460020002328
:101B300000240B125568CEB205EA060415681D4054
:101B400015B10CB1012000E0002070BD00220A1286
:101B5000D3430360704770477047704770477047C2
:101B6000754600F029F8AE4605006946534620F058
:101B70000700854618B020B5FEF7C2FFBDE820403B
:101B80004FF000064FF000074FF000084FF0000B39
:101B900021F00701AC46ACE8C009ACE8C009ACE8EC
:101BA000C009ACE8C0098D4670470446AFF3008019
:101BB0002046FEF7E2FA0000004870474C01002082
:101BC00010F0004148BF4042B0FA80F310FA03F22F
:101BD000C3F19D030BD051EAC35101EB1220530610
:101BE00038BF704700F1010008BF20F001007047C6
:101BF000101C00080000002034000000280100082C
:101C0000441C0008340000207C0700004401000848
:101C100000A24A04000000000000000001020304CA
:101C20000607080900000000000000000000000096
:101C3000000001020304010203040607080902046C
:041C40000608000092
:04000005080000ED02
:00000001FF
